:100000000C945D000C9485000C9485000C94850084
:100010000C9485000C9485000C9485000C9485004C
:100020000C9485000C9485000C9485000C9485003C
:100030000C9485000C9485000C9485000C9485002C
:100040000C94B9020C9485000C947F020C94440229
:100050000C9485000C9485000C9485000C9485000C
:100060000C9485000C94850000000007000201003C
:100070000003040600000000000000000000000073
:10008000250028002B0000000000240027002A0083
:10009000040404040404040402020202020203032E
:1000A0000303030301020408102040800102040836
:1000B0001020010204081020030311241FBECFEFFB
:1000C000D8E0DEBFCDBF11E0A0E0B1E0E0E5FEE0AA
:1000D00002C005900D92A033B107D9F721E0A0E34B
:1000E000B1E001C01D92A73EB207E1F710E0CDE5F7
:1000F000D0E004C02197FE010E942007CC35D10733
:10010000C9F70E943E030C9402050C940000089568
:100110000F931F93CF93DF93FC01A685B7858D01C5
:10012000005C1F4FE8018881998101968F739927A0
:10013000AD014E5B5F4FEA012881398128173907ED
:10014000D1F3E80128813981A20FB31F6C93A685F2
:10015000B785A05CBF4F11969C938E93A689B789F3
:100160002C9181E090E0078C02C0880F991F0A94BF
:10017000E2F7822B8C9381E081A30488F589E02D3E
:1001800080818064808381E090E0DF91CF911F9136
:100190000F910895FC0181A1882329F0A489B589D4
:1001A0008C9186FFFBCF11A20895FC01A485B58533
:1001B000FD01E05CFF4F2081318132968081918189
:1001C0002817390779F080819181A80FB91F8C9188
:1001D000208131812F5F3F4F2F733327318320835D
:1001E00090E008958FEF9FEF0895DC011C96ED914C
:1001F000FC911D97DF01A05CBF4F2D913C911197A1
:1002000012968D919C9111972817390739F08D918D
:100210009C91E80FF91F808190E008958FEF9FEF88
:100220000895FC0124853585F901E05CFF4F80814C
:100230009181329620813181821B930B8F73992794
:10024000089585EC91E00C941101CF92DF92EF922A
:10025000FF920F931F93CF93DF936C01EB017B0110
:10026000E40EF51E00E010E0CE15DF0561F06991A7
:10027000D601ED91FC910190F081E02DC601099528
:10028000080F191FF1CFC801DF91CF911F910F9176
:10029000FF90EF90DF90CF90089590E0FC01E85937
:1002A000FF4F2491FC01EC55FF4F3491FC01E057C6
:1002B000FF4FE491EE2309F43CC0222339F12330AF
:1002C00091F038F42130A9F0223001F584B58F7D0A
:1002D00012C0263091F02730A1F02430B9F480917B
:1002E00080008F7D03C0809180008F778093800095
:1002F0000DC084B58F7784BD09C08091B0008F7721
:1003000003C08091B0008F7D8093B000F0E0EE0FCD
:10031000FF1FE458FF4FA591B4919FB7F894611166
:1003200004C08C913095382302C0EC913E2B3C9355
:100330009FBF08953FB7F8948091350190913601A1
:10034000A0913701B091380126B5A89B05C02F3F79
:1003500019F00196A11DB11D3FBFBA2FA92F982FEB
:100360008827820F911DA11DB11DBC01CD0142E066
:10037000660F771F881F991F4A95D1F70895CF926E
:10038000DF92EF92FF92CF93DF936B017C010E948B
:100390009A01EB01C114D104E104F10479F00E9447
:1003A0009A016C1B7D0B683E7340A0F381E0C81A74
:1003B000D108E108F108C851DC4FECCFDF91CF91B3
:1003C000FF90EF90DF90CF900895009769F0FC01C7
:1003D00001900020E9F73197AF01481B590BBC0190
:1003E00085EC91E00C94250180E090E008958F92D7
:1003F0009F92AF92BF92EF92FF920F931F93CF9372
:10040000DF93CDB7DEB7A1970FB6F894DEBF0FBE6E
:10041000CDBF162F042F19A2423008F40AE07E0146
:1004200021E2E20EF11C802E912CA12CB12C612F27
:10043000A50194010E94EA06029F1019112481E08F
:10044000E81AF1081A3014F4105D01C0195CF701C4
:100450001083122F732FCA01232B242B252B39F73E
:10046000C7010E94E501A1960FB6F894DEBF0FBE4A
:10047000CDBFDF91CF911F910F91FF90EF90BF9073
:10048000AF909F908F9008951F920F920FB60F928A
:1004900011242F933F938F939F93EF93FF9320917A
:1004A0007D0130917E0180917F019091800128171C
:1004B000390731F48091C1008F7D8093C10014C051
:1004C000E0917F01F0918001E35CFE4F20818091FB
:1004D0007F019091800101968F73992790938001FD
:1004E00080937F012093C600FF91EF919F918F91A0
:1004F0003F912F910F900FBE0F901F9018951F9254
:100500000F920FB60F9211242F934F935F938F93F7
:100510009F93EF93FF938091C00082FD1CC02091B8
:10052000C6008091C1019091C2014091C3015091D8
:10053000C40101968F7399274817590771F0E0910C
:10054000C101F091C201EF57FE4F20839093C20189
:100550008093C10102C08091C600FF91EF919F91ED
:100560008F915F914F912F910F900FBE0F901F9021
:1005700018951F920F920FB60F9211242F933F934D
:100580008F939F93AF93BF938091310190913201EC
:10059000A0913301B09134013091300123E0230F59
:1005A0002D3720F40196A11DB11D05C026E8230FAB
:1005B0000296A11DB11D20933001809331019093CB
:1005C0003201A0933301B0933401809135019091B1
:1005D0003601A0913701B09138010196A11DB11DDE
:1005E0008093350190933601A0933701B093380181
:1005F000BF91AF919F918F913F912F910F900FBE1F
:100600000F901F901895E5ECF1E01382128288EEAE
:1006100093E0A0E0B0E084839583A683B78384E071
:1006200091E09183808381E891E0958784878DE3D1
:1006300091E09787868785EC90E0918B808B84ECA6
:1006400090E0938B828B80EC90E0958B848B81EC97
:1006500090E0978B868B82EC90E0918F808F86EC78
:1006600090E0938F828F84E0848F83E0858F87E092
:10067000868F85E0878F81E080A30895789484B584
:10068000826084BD84B5816084BD85B5826085BD8E
:1006900085B5816085BD80916E00816080936E001C
:1006A000109281008091810082608093810080910E
:1006B00081008160809381008091800081608093BF
:1006C00080008091B10084608093B1008091B0007F
:1006D00081608093B00080917A00846080937A007A
:1006E00080917A00826080937A0080917A008160A4
:1006F00080937A0080917A00806880937A001092CB
:10070000C100E091D901F091DA0181E090E09C0113
:100710000090E50102C0220F331F0A94E2F7208304
:10072000E091D501F091D6011082E091D701F091CE
:10073000D8012FEC20831092E601E091DB01F091CB
:10074000DC0140819C010090E10102C0220F331FB7
:100750000A94E2F7242B2083E091DB01F091DC0185
:1007600040819C010090E20102C0220F331F0A94D5
:10077000E2F7242B2083E091DB01F091DC01408142
:100780009C010090E30102C0220F331F0A94E2F79C
:10079000242B2083E091DB01F091DC01208100908B
:1007A000E40102C0880F991F0A94E2F78095822322
:1007B0008083E6EAF0E02491E2E9F0E08491882386
:1007C00099F090E0880F991FFC01EA57FF4FA5911F
:1007D000B491FC01E458FF4F859194918FB7F89440
:1007E000EC91E22BEC938FBF64EF71E080E090E03E
:1007F0000E94BF0190E4392E0EE711E0C3E0D0E083
:1008000080E191E00E94E50130927C0080917A00C5
:10081000806480937A0080917A0086FDFCCF80917D
:1008200078002091790090E0922B9801281B390BD9
:10083000C901BE010E94D606072E000C880B990B39
:100840000E94AF056B017C014B015C016093390193
:1008500070933A0180933B0190933C019B01AC0162
:100860000E94D106882319F081E291E01AC0260186
:100870003701E89477F82FEF3FEF4FE75FE7C301C9
:10088000B2010E94D10681110FC02FEF3FEF4FE759
:100890005FE7C301B2010E94720518162CF485E2CD
:1008A00091E00E94E50185C02FEF3FEF4FE75FE445
:1008B000C701B6010E945F0618161CF489E291E098
:1008C000F0CF2FEF3FEF4FE75FECC701B6010E947B
:1008D000720587FDF3CF20E030E0A901C701B60122
:1008E0000E94720587FF0BC06DE285EC91E00E94CB
:1008F000880046015701B7FAB094B7F8B0942AE0DF
:1009000037ED43EA5BE3C501B4010E9406056B01C4
:100910007C010E947E054B015C010E94AD059B019C
:10092000AC01C701B6010E9405056B017C014AE0DC
:10093000C501B4010E94F7018DE291E00E94E5013A
:1009400083E0B82EBA94BB20A1F120E030E040E271
:1009500051E4C701B6010E9464062B013C010E94CC
:1009600077056B01770FEE08FF08F7FE10C06DE208
:1009700085EC91E00E94880088279927DC018C197A
:100980009D09AE09BF094AE0BC01CD0103C04AE0A0
:10099000C701B6010E94F701C701B6010E94AF0569
:1009A0009B01AC01C301B2010E9405056B017C01F2
:1009B000C9CF6DE085EC91E00E9488006AE085EC8B
:1009C00091E00E94880020E030E84BE354E460911D
:1009D000390170913A0180913B0190913C010E9454
:1009E0005F06181614F460E001C061E082E00E9426
:1009F0004D0168EE73E080E090E00E94BF010E942C
:100A00002101FECEF8940C9426075058BB27AA2744
:100A10000E941D050C9425060E94170638F00E94BE
:100A20001E0620F039F49F3F19F426F40C941406A6
:100A30000EF4E095E7FB0C940E06E92F0E943606B3
:100A400058F3BA17620773078407950720F079F403
:100A5000A6F50C9458060EF4E0950B2EBA2FA02D97
:100A60000B01B90190010C01CA01A0011124FF275B
:100A7000591B99F0593F50F4503E68F11A16F04056
:100A8000A22F232F342F4427585FF3CF4695379555
:100A90002795A795F0405395C9F77EF41F16BA0B1A
:100AA000620B730B840BBAF09150A1F0FF0FBB1FC8
:100AB000661F771F881FC2F70EC0BA0F621F731F11
:100AC000841F48F4879577956795B795F7959E3F6E
:100AD00008F0B0CF9395880F08F09927EE0F9795FF
:100AE000879508950E94EA0508F481E008950E9420
:100AF0007E056894B1110C94590608950E943E0633
:100B000088F09F5798F0B92F9927B751B0F0E1F0CE
:100B1000660F771F881F991F1AF0BA95C9F714C07E
:100B2000B13091F00E945806B1E008950C94580637
:100B3000672F782F8827B85F39F0B93FCCF38695B7
:100B400077956795B395D9F73EF490958095709514
:100B500061957F4F8F4F9F4F0895E89409C097FB91
:100B60003EF490958095709561957F4F8F4F9F4F84
:100B70009923A9F0F92F96E9BB279395F6958795C8
:100B800077956795B795F111F8CFFAF4BB0F11F48B
:100B900060FF1BC06F5F7F4F8F4F9F4F16C0882332
:100BA00011F096E911C0772321F09EE8872F762F68
:100BB00005C0662371F096E8862F70E060E02AF0A9
:100BC0009A95660F771F881FDAF7880F9695879595
:100BD00097F90895990F0008550FAA0BE0E8FEEF6A
:100BE00016161706E807F907C0F012161306E407F1
:100BF000F50798F0621B730B840B950B39F40A26EA
:100C000061F0232B242B252B21F408950A2609F4C7
:100C1000A140A6958FEF811D811D089597F99F67CB
:100C200080E870E060E008959FEF80EC0895002474
:100C30000A941616170618060906089500240A9441
:100C400012161306140605060895092E0394000CC7
:100C500011F4882352F0BB0F40F4BF2B11F460FF56
:100C600004C06F5F7F4F8F4F9F4F089557FD90587F
:100C7000440F551F59F05F3F71F04795880F97FB60
:100C8000991F61F09F3F79F087950895121613061A
:100C90001406551FF2CF4695F1DF08C01616170649
:100CA0001806991FF1CF869571056105089408957E
:100CB000E894BB2766277727CB0197F908950E9410
:100CC000EA0508F48FEF08950E9477060C94250634
:100CD0000E94170638F00E941E0620F0952311F09E
:100CE0000C940E060C94140611240C9459060E94C0
:100CF000360670F3959FC1F3950F50E0551F629F24
:100D0000F001729FBB27F00DB11D639FAA27F00D64
:100D1000B11DAA1F649F6627B00DA11D661F829F8B
:100D20002227B00DA11D621F739FB00DA11D621F70
:100D3000839FA00D611D221F749F3327A00D611D8D
:100D4000231F849F600D211D822F762F6A2F11246F
:100D50009F5750409AF0F1F088234AF0EE0FFF1FA2
:100D6000BB1F661F771F881F91505040A9F79E3FF9
:100D7000510580F00C940E060C9459065F3FE4F385
:100D8000983ED4F3869577956795B795F795E7954F
:100D90009F5FC1F7FE2B880F911D9695879597F958
:100DA00008950E94EA05880B990B089597FB072E7A
:100DB00016F4009407D077FD09D00E940C0707FCB9
:100DC00005D03EF4909581959F4F0895709561955B
:100DD0007F4F0895A1E21A2EAA1BBB1BFD010DC077
:100DE000AA1FBB1FEE1FFF1FA217B307E407F507DB
:100DF00020F0A21BB30BE40BF50B661F771F881FB7
:100E0000991F1A9469F760957095809590959B014C
:100E1000AC01BD01CF010895AA1BBB1B51E107C066
:100E2000AA1FBB1FA617B70710F0A61BB70B881F7A
:100E3000991F5A95A9F780959095BC01CD01089509
:100E4000EE0FFF1F0590F491E02D0994F894FFCF69
:100E500000000000880025011101D500F500CA003E
:100E60004D4F495354555245204C4556454C313A07
:100E7000006E616E00696E66006F7666002E00007F
:00000001FF
